:020000040800F2
:10000000F8050020A101000835300008DD2C0008AB
:100010003130000865070008713D0008000000004D
:100020000000000000000000000000005D32000839
:100030002508000800000000373000085F32000883
:10004000BB010008BB010008BB010008BB010008A0
:10005000BB010008BB010008BB010008BB01000890
:10006000BB010008BB010008BB010008BB01000880
:10007000BB010008BB010008BB010008BB01000870
:10008000BB010008BB010008BB010008990700087C
:10009000690700087907000889070008BB01000804
:1000A0004D330008BB010008BB010008BB0100087C
:1000B000BB0100080000000000000000BB010008B8
:1000C000BB010008BB010008BB010008BB01000820
:1000D000BB010008BB010008613D0008BB0100082E
:1000E000BB010008BB010008000000000000000088
:1000F0000000000000000000000000000000000000
:1001000000000000BB01000800000000BB01000867
:100110000000000000000000BB010008BB01000857
:10012000BB010008BB010008BB010008BB010008BF
:10013000BB010008000000000000000000000000FB
:10014000BB010008BB010008BB0100080000000063
:10015000BB010008BB010008BB010008BB0100088F
:10016000BB010008BB010008BB0100080000000043
:10017000BB010008BB0100080000000000000000F7
:10018000BB010008BB010008BB010008DFF80CD070
:1001900000F0C4FA00480047C9460008F8050020EE
:1001A0000648804706480047FEE7FEE7FEE7FEE711
:1001B000FEE7FEE7FEE7FEE7FEE7FEE7FD320008AA
:1001C0008D0100082DE9F05F0546002092469B4610
:1001D00088460646814640241BE02846414647465D
:1001E000224600F06BF853465A46C01A914110D38C
:1001F00011461846224600F052F82D1A67EB010806
:100200004F4622460120002100F049F817EB000973
:100210004E41201EA4F10104DFDC484631462A4647
:10022000434600F000B830BCBDE8C09FD2B201E048
:1002300000F8012B491EFBD270470022F6E710B5EB
:1002400013460A4604461946FFF7F0FF204610BD44
:100250000EB5C10F80EAE0700844CA07002140F2E1
:1002600033438DE80E000A460B4600F046F803B013
:1002700000BD30B50B46014600202022012409E0D4
:1002800021FA02F59D4205D303FA02F5491B04FA4F
:1002900002F52844151EA2F10102F1DC30BD202A2E
:1002A00004DB203A00FA02F1002070479140C2F1CD
:1002B000200320FA03F3194390407047202A04DBFF
:1002C000203A21FA02F00021704721FA02F3D040CF
:1002D000C2F12002914008431946704710B5141E20
:1002E00073F1000408DA401C41F1000192185B41EF
:1002F0001A4301D120F0010010BD2DE9F04D9246C6
:100300009B4611B1B1FA81F202E0B0FA80F22032DC
:100310009046FFF7C4FF04460F4640EA0A0041EA50
:100320000B0153465A46084313D0114653EA0100C5
:1003300019D0C8F140025046FFF7C0FF05460E46EF
:10034000504659464246FFF7AAFF084305D0012010
:1003500004E020463946BDE8F08D0020054346EA1A
:10036000E0762C4337430A986305E40AA0EB0800C3
:100370000022FD0A44EA47540A3002D50020014613
:10038000E9E7010510196941DDE9084500196941EE
:10039000BDE8F04DA2E72DE9FE4F804681EA03005B
:1003A000C00F0C46009021F0004123F00045B8EB4F
:1003B0000200A94105D24046214690461C460B4604
:1003C000024623F00040104347D0270DC7F30A0030
:1003D000C3F30A510290401A019040286BDAC3F32C
:1003E000130040F4801B0098924620B10023D2EB0A
:1003F000030A63EB0B0B01985946C0F140025046CB
:10040000FFF74DFF06460D4650465946019A00F04B
:1004100097F910EB08006141002487EA115284EA41
:10042000E7731A4340D0009A62B3019A012A4FEA57
:10043000075215DC001B61EB02014FF0004202EA9B
:100440000752CDE90042001C41F5801132462B468F
:10045000FFF753FF03B000F045B840462146F9E7E7
:10046000001B61EB0201001C41F5801300185B4189
:100470002018A2F5001747EB030140EAD570B61922
:100480006D4111E06D084FEA360645EAC0754FEA46
:100490000752001B61EB0201001C41F58011490865
:1004A0004FEA30000019514132462B4603B000F0AC
:1004B0001CB8FFF713BF0098012240000023D0EBC7
:1004C000020263EBE073009821464FEAE074B8EB58
:1004D000000061EB0401E9E783F000435BE781F092
:1004E000004158E730BCBDE8C08F30BCBDE8C04F0C
:1004F000FFF7DFBF2DE9FE4F81EA030404F000445B
:1005000021F0004100944FF0000B23F0004350EA2B
:1005100001045ED052EA03045BD0C3F30A54C1F372
:100520000A552C44A4F2F3340194A0FB0254C1F305
:10053000130141F48011C3F3130343F4801301FB4F
:10054000024400FB034E840A970A44EA815447EAB6
:100550008357A4FB076802958D0A05FB07854FEAC0
:10056000932C04FB0C542705029D4FEA065847EADA
:100570001637B5EB08056EEB070C870E920E47EAAF
:10058000811742EA8312A7FB0201B6EB0B0164EB71
:1005900000042B0D43EA0C335E1844EB1C50DA4682
:1005A0005146E7FB0201C5F313044FEA0B3343EA5C
:1005B00014534FEA0432019C43EA0603A4F10C04ED
:1005C0000294009CCDE900B4FFF797FE03B000F061
:1005D00003B800200146F9E730BCBDE8C08F2DE923
:1005E000F04D81EA030404F0004B21F0004514466D
:1005F0004FF0000A23F0004150EA050220D054EAEF
:1006000001021DD0C5F30A570246C5F31303C1F317
:100610001300C1F30A5640F4801543F48013A7EB8E
:100620000608101BD64608F2FD3873EB050002D30E
:1006300008F1010801E092185B41B8F1000F03DAFC
:1006400000200146BDE8F08D00204FF480110646E1
:1006500084460EE0171B73EB050705D3121B63EBF3
:10066000050306434CEA010C49084FEA3000921892
:100670005B4150EA0107EDD152EA030012D082EA51
:10068000040083EA0501084305D0101BAB4106D2E4
:100690000122002306E000224FF0004302E06FF049
:1006A000010253101AEB06004CEB085110EB0A0044
:1006B00041EB0B01BDE8F04DFFF710BEC1F30A524C
:1006C000C1F3130140F2FF3341F480119A4202DA80
:1006D00000200146704740F233439A42A2F233426F
:1006E00002DC5242FFF7EABDFFF7D9BD30B5041E68
:1006F00071F1000404DB4FF00044404264EB01015F
:10070000141E73F1000405DB1C464FF000435242F7
:1007100063EB0403994208BF904230BD064C074D7D
:1007200006E0E06840F0010394E8070098471034C1
:10073000AC42F6D3FFF72EFDE04800080049000860
:10074000202A06DBCB17203A41FA02F043EAE07395
:1007500006E041FA02F3D040C2F120029140084382
:100760001946704700BFFEE710B5024800F0A2F935
:1007700010BD00003000002010B5024800F09AF9CA
:1007800010BD00003000002010B5024800F092F9C2
:1007900010BD00003000002010B5024800F08AF9BA
:1007A00010BD00003000002000B58BB00020069086
:1007B000012007900890184800784005000C01902F
:1007C00015480078002141EA405080B202904FF66F
:1007D000FF700390049000200590012009900E20E6
:1007E0000A9001A90D4800F0DFF808B100F01BF8ED
:1007F0000A4800F0A4FB08B100F015F802210748F0
:1008000000F012F808B100F00EF800200449C860AA
:10081000886008750BB000BD00000020300000208B
:10082000C00100207047704710B5024692F8203092
:10083000012B01D0022B06D11068406908431468CF
:100840006061002010BD506A40F480205062012099
:10085000F8E7F0B504460D461E4694F8207020686F
:100860008368A86800B900E000BF012F01D0022F03
:100870007CD103F0806030B903F0006018B903F058
:100880008050002873D0C3F30161022905D9606A42
:1008900040F4000060620120F0BD0120884030601B
:1008A000A86860B9B5F800C0E86840EA4C5C206808
:1008B00000F5C07000EB0110C0F800C00FE0D5E9F2
:1008C00001C040EACC00D5F80CC040EA0C00D4F8D6
:1008D00000C00CF5C07C0CEB011CCCF80000D5F876
:1008E00010C0206800F5C07000EB0110C0F804C013
:1008F000287D01280ED1206800F5C07000EB0110A2
:10090000406840F4807C206800F5C07000EB011066
:10091000C0F804C0D079000692F806C040EA0C4046
:1009200092F805C040EA0C2C10794CEA000C2068C3
:1009300000F5C07000EB0110C0F80CC0D0780006C4
:1009400092F802C040EA0C4092F801C040EA0C2044
:1009500092F800C040EA0C00D4F800C00CF5C07C4E
:100960000CEB011CCCF80800206801E016E00FE059
:1009700000F5C07000EB0110006840F0010C206829
:1009800000F5C07000EB0110C0F800C0002083E744
:10099000606A40F40010606201207DE7606A40F404
:1009A00080206062012077E7F0B504460A4621689E
:1009B00094F82050012D01D0022D74D1D1F80002FD
:1009C00040F00100C1F80002107D00F01F06012078
:1009D00000FA06F3D1F81C029843C1F81C02D06952
:1009E000C8B9D1F80C029843C1F80C02908880B2C3
:1009F000968940EA064601F51070576940F837605D
:100A0000108880B2168940EA064601F510705769D1
:100A100000EBC7004660D069012819D1D1F80C025B
:100A20001843C1F80C02908880B2168840EA064646
:100A300001F51070576940F83760908980B21689C7
:100A400040EA064601F51070576900EBC7004660A2
:100A5000906928B9D1F804029843C1F8040204E06F
:100A6000D1F804021843C1F80402106928B9D1F87A
:100A700014029843C1F8140204E0D1F81402184398
:100A8000C1F81402106A012804D1D1F81C021843DD
:100A9000C1F81C02D1F8000220F00100C1F80002E8
:100AA0000020F0BDFFE7606A40F480206062012012
:100AB000F7E770472DE9F05F044600252068466996
:100AC0002068D0F80490206887682068D0F80CA0CF
:100AD0002068D0F810B02068D0F8188006F0010027
:100AE000002855D007F00100C0B1012021688860BE
:100AF00007F0020018B1204600F051FA0EE007F0AE
:100B0000040010B145F4006508E007F0080010B1DA
:100B100045F4805502E0204600F040FA07F480706A
:100B2000C8B14FF480702168886007F4007018B174
:100B3000204600F036FA0EE007F4806010B145F46C
:100B4000005508E007F4006010B145F4804502E06C
:100B5000204600F025FA07F48030C8B14FF4803009
:100B60002168886007F4003018B1204600F01BFAB5
:100B70000EE007F4802010B145F4004508E007F4CA
:100B8000002010B145F4803502E0204600F00AFA5A
:100B900006F0080038B10AF0100020B145F40075E5
:100BA00010202168C86006F0040040B10AF0080077
:100BB00028B108202168C860204600F0BBF906F083
:100BC000020038B12068C06800F0030010B1204670
:100BD00000F0B1F906F0400038B10BF0100020B180
:100BE00045F4806510202168086106F0200040B1BE
:100BF0000BF0080028B1082021680861204600F0A9
:100C00009BF906F0100038B12068006900F003007D
:100C100010B1204600F091F906F4003040B109F01F
:100C2000100028B1102021684860204600F086F9A5
:100C300006F4803040B109F0080028B1082021688E
:100C40004860204600F0B0F906F4004088B309F08F
:100C5000040078B306F4807020B108F0010008B1F8
:100C600045F0010506F4007020B108F0020008B15B
:100C700045F0020506F4806020B108F0040008B1D8
:100C800045F0040506F40060A0B108F0700088B1DA
:100C900008F07000402817D006DC10280BD0202860
:100CA0000CD0302819D10CE0502810D0602814D175
:100CB00010E01DE019E045F008050FE045F01005D3
:100CC0000CE045F0200509E045F0400506E045F060
:100CD000800503E045F4807500E000BF00BF206898
:100CE000806920F0700021688861042021684860D4
:100CF0002DB1606A284360622046FFF7DAFE00F0FB
:100D000000B830BCBDE8C09F70B504460CB90120E6
:100D100070BD94F8200010B9204600F0AFF82068AC
:100D2000006820F002002168086000F06BFA0546B8
:100D30000DE000F067FA401B0A2808D9606A40F409
:100D400000306062052084F820000120E0E7206880
:100D5000406800F002000028EBD12068006840F0F5
:100D600001002168086000F04DFA05460DE000F032
:100D700049FA401B0A2808D9606A40F400306062D2
:100D8000052084F820000120C2E72068406800F0B8
:100D900001000028EBD0207E012806D120680068E1
:100DA00040F080002168086005E02068006820F0BD
:100DB000800021680860607E012806D120680068F4
:100DC00040F040002168086005E02068006820F0DD
:100DD000400021680860A07E012806D120680068D4
:100DE00040F020002168086005E02068006820F0DD
:100DF000200021680860E07E012806D12068006894
:100E000020F010002168086005E02068006840F0CC
:100E1000100021680860207F012806D12068006842
:100E200040F008002168086005E02068006820F0B4
:100E3000080021680860607F012806D120680068EA
:100E400040F004002168086005E02068006820F098
:100E5000040021680860D4E90201084321690843BD
:100E6000616908436168491E08432168C861002020
:100E70006062012084F82000002049E710B586B0A8
:100E80000446142101A8FFF7D8F9284920688842B0
:100E900049D100BF2648806D40F000702449886524
:100EA0000846806D00F00070009000BF00BF00BFDA
:100EB0000846C06C40F00100C8640846C06C00F0F1
:100EC0000100009000BF00BF4FF4C050019002200D
:100ED000029000200390032004900920059001A9AE
:100EE000C00600F0A5F800221146132000F008FA11
:100EF000132000F0F5F900221146142000F000FA4A
:100F0000142000F0EDF900221146152000F0F8F948
:100F1000152000F0E5F900221146162000F0F0F946
:100F2000162000F0DDF906B010BD0000006400409E
:100F3000001002407047704770477047704770B5A7
:100F4000044694F82000012822D1022084F82000D1
:100F50002068006820F001002168086000F052F964
:100F600005460DE000F04EF9401B0A2808D9606ADA
:100F700040F400306062052084F82000012070BD3C
:100F80002068406800F001000028EBD16062F6E7BD
:100F9000606A40F4002060620120F0E7704770470B
:100FA0007047704770477047704770B5044600251A
:100FB00094F82500022803D00420E063012520E0F6
:100FC0002068006820F00E00216808602068006832
:100FD00020F001002168086094F8440000F01C0132
:100FE00001208840216C4860012084F8250000BF62
:100FF000002084F8240000BFA06B10B12046A16B34
:101000008847284670BD000070B5044600F0FAF825
:1010100006462546681C10B104480068054400BF18
:1010200000F0F0F8801BA842FAD370BD2800002021
:1010300078B503460022CBE0012696400D6805EA0C
:101040000604002C72D04D68022D02D04D68122D7E
:1010500013D1D60803F1200555F826005507EE0EEA
:101060000F25B540A8435607F60E0D69B540284335
:10107000D60803F1200545F8260018685600032518
:10108000B540A8430D7905F003055600B540284347
:1010900018604D68012D08D04D68022D05D04D68AF
:1010A000112D02D04D68122D13D1986856000325DA
:1010B000B540A8435600CD68B540284398605868AD
:1010C00001259540A8430D79C5F3001595402843A7
:1010D0005860D86856000325B540A84356008D686F
:1010E000B5402843D8604D6805F08055B5F1805F64
:1010F0006DD100BF394D2D6E45F00105374E356677
:1011000035462D6E05F00105009500BF00BF4FEA82
:10111000B635960855F8260095072E0F0F25B540D1
:10112000A843B3F1904F02D1002515E04FE02C4DBC
:10113000AB4201D101250FE02A4DAB4201D102257E
:101140000AE0294DAB4201D1032505E0274DAB4212
:1011500001D1042500E007259607360FB540284346
:10116000234D960845F82600224D2868A0434D6877
:1011700005F48035B5F5803F00D120431D4D286032
:101180002D1D2868A0434D6805F40035B5F5003FD6
:1011900000D12043174D2D1D28602D1D2868A04328
:1011A0004D6805F48015B5F5801F00D12043114D21
:1011B000083528602D1D2868A0434D6805F40015EA
:1011C000B5F5001F00D120430A4D0C352860521C94
:1011D0000D68D540002D7FF42FAF78BD0010024080
:1011E0000004004800080048000C004800100048B7
:1011F00008000140000401400AB1816100E0816201
:10120000704700000148006870470000200000207F
:1012100003480068034909680844014908607047A9
:10122000200000202800002010B50024032000F03A
:10123000A9F8002000F008F808B1012401E000F04E
:101240002FF8204610BD000070B504460025114857
:101250000068D8B10F4800684FF47A71B1FBF0F024
:101260000D490968B1FBF0F6304600F091FF58B91E
:10127000102C07D200222146501E00F041F80748EA
:10128000046004E0012502E0012500E00125284674
:1012900070BD0000280000201C0000202400002059
:1012A00008B500BF0D48006E40F001000B4908660C
:1012B0000846006E00F00100009000BF00BF00BFB4
:1012C0000846806D40F0805088650846806D00F0CB
:1012D0008050009000BF00BF08BD00000010024019
:1012E00001460846002809DB00F01F0301229A404E
:1012F00043099B0003F1E023C3F8002100BF7047BE
:101300002DE9F05F80460D461646002702F042FDAB
:10131000074639462A46334601F00700C0F1070A5E
:10132000BAF1040F02D94FF0040A01E0C0F1070A34
:10133000D14600F1040ABAF1070F02D24FF0000AB9
:1013400001E0A0F1030AD4464FF0010A0AFA09FAB3
:10135000AAF1010A0AEA020A0AFA0CFA4FF0010B92
:101360000BFA0CFBABF1010B0BEA030B4AEA0B0483
:101370002146404602F016FD00F000B830BCBDE842
:10138000C09F000000BF00F00702064B19684FF62F
:10139000FF031940044B0B4343EA0221014B196040
:1013A00000BF70470CED00E00000FA050246B2F500
:1013B000007F2AD11D48006800F4C060B0F5007FAE
:1013C00032D01A48006820F4C06040F40070174B17
:1013D00018601748006832235843164BB0FBF3F0EF
:1013E000411C00E0491E1148406900F48060B0F5DE
:1013F000806F01D10029F5D10C48406900F480606C
:10140000B0F5806F10D1032070470848006800F4E1
:10141000C060B0F5806F07D00448006820F4C06059
:1014200040F48060014B18600020EDE70070004040
:101430001C00002040420F000248006800F4C06019
:1014400070470000007000402DE9F8430446002575
:10145000A846208800F40060B0F5006F26D1606CCB
:1014600068B1B0F5000F03D0B0F5400F0ED10CE01D
:10147000D548C06840F48030D349C86008E00021F6
:10148000201D01F0D9FD054602E001E0012500BF65
:1014900000BF55B9CC488830006820F44000616C2A
:1014A0000843C949C1F8880000E0A846206800F454
:1014B0000030B0F5003F75D14FF00009C248806D93
:1014C000012121EA107078B100BFBF48806D40F063
:1014D0008050BD4988650846806D00F080500090BE
:1014E00000BF00BF4FF00109B848006840F48070A9
:1014F000B6490860FFF786FE074606E0FFF782FE62
:10150000C01B022801D9032505E0B048006800F49B
:1015100080700028F2D000BF7DBBAB4890300068DF
:1015200000F44076CEB1A06DB04216D0A6489030FF
:10153000006820F44076A448D0F8900040F4803051
:10154000A149C1F890000846D0F8900020F48030FE
:10155000C1F890000846C0F8906006F00100A8B1FC
:10156000FFF750FE074609E0FFF74CFEC01B41F2B3
:101570008831884202D9032507E016E0924890306E
:10158000006800F002000028EED000BF5DB98E4870
:101590009030006820F44070A16D08438A49C1F87A
:1015A000900003E00CE0A84600E0A846B9F1010F66
:1015B00005D18548806D20F080508349886500BF43
:1015C000207800F0010048B17F488830006820F0A2
:1015D0000300216A08437C49C1F88800207800F0A4
:1015E0000200022809D178488830006820F00C00F9
:1015F000616A08437449C1F88800207800F004004B
:10160000042809D170488830006820F03000A16AB1
:1016100008436D49C1F88800207800F02000202898
:1016200009D169488830006820F44060E16A0843C5
:101630006549C1F88800208800F40070B0F5007F8B
:1016400009D161488830006820F44020E16B0843EC
:101650005D49C1F88800208800F48060B0F5806F93
:1016600009D159488830006820F44010216C0843A3
:101670005549C1F88800207800F04000402809D181
:1016800051488830006820F44050216B08434E498F
:10169000C1F88800207800F08000802809D14A48ED
:1016A0008830006820F44040616B08434649C1F827
:1016B0008800208800F48070B0F5807F09D142480E
:1016C0008830006820F44030A16B08433E49C1F8DF
:1016D0008800206800F40020B0F5002F1FD13A48A0
:1016E0008830006820F04060A16C0843364988319A
:1016F0000860A06CB0F1006F06D13348C06840F4B8
:1017000080103149C8600AE0A06CB0F1806F06D14A
:101710000121201D01F090FC054605B1A846206876
:1017200000F48020B0F5802F1FD127488830006852
:1017300020F04060E16C0843234988310860E06C88
:10174000B0F1006F06D12048C06840F480101E49F7
:10175000C8600AE0E06CB0F1806F06D10121201D65
:1017600001F06AFC054605B1A846208800F48040D7
:10177000B0F5804F14D114488830006820F04050F4
:10178000216D0843104988310860206DB0F1805FF9
:1017900006D10221201D01F04FFC054605B1A846E7
:1017A000208800F40040B0F5004F09D10648883089
:1017B000006820F08040616D08430349C1F888004B
:1017C0004046BDE8F8830000001002400070004071
:1017D0002DE9F04104460D4614B90120BDE8F08121
:1017E0005548006800F00700A8420ED25248006831
:1017F00020F007002843504908600846006800F0C0
:101800000700A84201D00120E8E7207800F001009D
:10181000002840D06068032806D14848006800F0DE
:101820000070D8B90120D9E76068022806D1434882
:10183000006800F4003088B90120CFE7606830B953
:101840003E48006800F0020040B90120C6E73B486E
:10185000006800F4806008B90120BFE7374880685D
:1018600020F003006168084334498860FFF7CAFC30
:10187000064608E0FFF7C6FC801B41F2883188422B
:1018800001D90320AAE72D48806800F00C006168A8
:10189000B0EB810FEED1207800F00200022807D1D2
:1018A0002648806820F0F000A1680843234988603A
:1018B0002148006800F00700A8420ED91E480068C1
:1018C00020F0070028431C4908600846006800F023
:1018D0000700A84201D0012080E7207800F0040032
:1018E000042807D11548806820F4E060E1680843C7
:1018F00012498860207800F00800082808D10F48B5
:10190000806820F46050216940EAC1000B4988607A
:1019100000F046F809498968C1F30311084A515C8F
:1019200001F01F01C8400749086007480068FFF739
:101930008BFC0746384651E7002002400010024069
:10194000984800081C00002024000020014800687E
:10195000704700001C00002000B5FFF7F7FF0549A5
:101960008968C1F30221044A515C01F01F01C8409B
:1019700000BD000000100240A848000800B5FFF7B5
:10198000E5FF05498968C1F3C221044A515C01F0B1
:101990001F01C84000BD000000100240A848000818
:1019A000F0B500230020DFF8D4C0DCF808C00CF04C
:1019B0000C01DFF8C8C0DCF80CC00CF0030719B14B
:1019C0000C291ED1012F1CD1DFF8B0C0DCF800C0FB
:1019D0000CF0080CBCF1000F06D1DFF8A0C0DCF859
:1019E00094C0CCF3032305E0DFF890C0DCF800C01E
:1019F000CCF30313DFF888C05CF8233041B91846F4
:101A000006E0042901D11F4802E0082900D11E4840
:101A10000C2932D1DFF864C0DCF80CC00CF00304F0
:101A2000012C09D0022C02D0032C04D101E0154A6C
:101A300004E0154A02E000BF1A4600BF00BFDFF80D
:101A40003CC0DCF80CC0CCF3021C0CF10106DFF842
:101A50002CC0DCF80CC0CCF3062C0CFB02FCBCFB4D
:101A6000F6F2DFF818C0DCF80CC0CCF3416C0CF1D6
:101A7000010C4FEA4C05B2FBF5F0F0BD001002403E
:101A8000B04800080024F40000127A002DE9F84361
:101A9000044614B90120BDE8F883F948806800F0D5
:101AA0000C07F748C06800F00306207800F010002B
:101AB000102876D11FB10C2F75D1012E73D1F048AB
:101AC000006800F0020018B1A06908B90120E2E73F
:101AD000EB48216A006800F0080020B1E84800687F
:101AE00000F0F00005E0E6489430006800F4706013
:101AF000000981421FD9206A01F062FB08B1012070
:101B0000C9E700BFDE48006840F00800DC49086013
:101B10000846006820F0F000216A0843D8490860B0
:101B200000BF0846406820F47F40E16940EA012098
:101B3000D34948601EE000BFD148006840F008006B
:101B4000CF4908600846006820F0F000216A084389
:101B5000CB49086000BF0846406820F47F40E16937
:101B600040EA0120C6494860206A01F029FB08B11B
:101B7000012090E7FFF714FFC1498968C1F3031101
:101B8000C04A515C01F01F01C840BF490860BF480E
:101B90000068FFF759FB8046B8F1000F4ED0404671
:101BA00079E74BE0FFE7A06980B3B548006840F0F3
:101BB0000100B3490860FFF725FB054606E0FFF783
:101BC00021FB401B022801D9032064E7AC480068D0
:101BD00000F002000028F2D000BFA948006840F0E1
:101BE0000800A74908600846006820F0F000216A54
:101BF0000843A349086000BF0846406820F47F40BE
:101C0000E16940EA01209E49486017E0FFE79C48EF
:101C1000006820F001009A490860FFF7F3FA0546D2
:101C200006E0FFF7EFFA401B022801D9032032E754
:101C30009348006800F002000028F2D1207800F0FC
:101C4000010000285CD0082F03D00C2F0AD1032EEE
:101C500008D18B48006800F4003088B3606878BB16
:101C6000012018E700BF6068B0F5803F06D18448C6
:101C7000006840F48030824908601AE06068B0F57E
:101C8000A02F0BD17E48006840F480207C4908607A
:101C90000846006840F4803008600AE07848006830
:101CA00020F48030764908600846006820F48020DF
:101CB000086000BF606890B1FFF7A4FA054607E02E
:101CC0001EE0FFF79FFA401B642801D90320E2E6DB
:101CD0006B48006800F400300028F2D010E0FFF7F5
:101CE00091FA054606E0FFF78DFA401B642801D9FA
:101CF0000320D0E66248006800F400300028F2D1EA
:101D0000207800F00200022852D1042F03D00C2FBB
:101D100014D1022E12D15A48006800F4806018B124
:101D2000E06808B90120B6E65548406820F0F85050
:101D3000217C40EA01605249486039E0E06800B324
:101D40004F48006840F480704D490860FFF75AFA28
:101D5000054606E0FFF756FA401B022801D903208A
:101D600099E64748006800F480600028F2D04448B3
:101D7000406820F0F850217C40EA0160404948600A
:101D800016E03F48006820F480703D490860FFF786
:101D900039FA054606E0FFF735FA401B022801D95B
:101DA000032078E63648006800F480600028F2D10D
:101DB000207800F00800082836D16069D0B130489A
:101DC0009430006840F001002D49C1F89400FFF7FD
:101DD00019FA054606E0FFF715FA401B022801D95B
:101DE000032058E626489430006800F002000028DE
:101DF000F1D019E022489430006820F00100204919
:101E0000C1F89400FFF7FEF9054606E0FFF7FAF97E
:101E1000401B022801D903203DE619489430006890
:101E200000F002000028F1D1207800F0040004281E
:101E300073D14FF000091248806D00F0805078B9DE
:101E400000BF0F48806D40F080500D4988650846FE
:101E5000806D00F08050009000BF00BF4FF001097E
:101E60000B48006800F4807008BB0948006840F423
:101E7000807007490860FFF7C5F9054611E00000CA
:101E800000100240984800081C0000202400002098
:101E900000700040FFF7B6F9401B022801D903206B
:101EA000F9E5B748006800F480700028F2D000BF60
:101EB000A068012808D1B348006840F00100B1498A
:101EC0009039C1F8900021E0A06805280FD1AD48F5
:101ED000006840F00400AB499039C1F89000084612
:101EE000D0F8900040F00100C1F890000EE0A54845
:101EF000006820F00100A3499039C1F8900008461D
:101F0000D0F8900020F00400C1F8900000BFA06855
:101F1000A0B1FFF777F9054609E02EE0FFF772F967
:101F2000401B41F28831884201D90320B3E595482E
:101F3000006800F002000028F0D012E0FFF762F91C
:101F4000054608E0FFF75EF9401B41F28831884200
:101F500001D903209FE58B48006800F002000028AB
:101F6000F0D1B9F1010F07D186489038806D20F08B
:101F7000805084499039886500BF207800F02000A7
:101F8000202838D1606AD8B17E480830006840F017
:101F900001007C499039C1F89800FFF733F90546F4
:101FA00006E0FFF72FF9401B022801D9032072E554
:101FB00074480830006800F002000028F1D01AE0F0
:101FC00070480830006820F001006E499039C1F86F
:101FD0009800FFF717F9054606E0FFF713F9401BD5
:101FE000022801D9032056E566480830006800F051
:101FF00002000028F1D1A06A00285BD00C2F78D015
:10200000A06A022857D15F489038006820F080709D
:102010005C4990390860FFF7F5F8054606E0FFF7E0
:10202000F1F8401B022801D9032034E555489038C7
:10203000006800F000700028F1D1D4E90B10401EB8
:1020400041EA0011606B41EA0021A08F0122C2EB3E
:10205000500041EA40514020005DC2EB500041EA8F
:1020600040613820005D41EAC06046499039C96846
:10207000454A1140084343499039C8600846006802
:1020800040F0807008600846C06840F08070C8600A
:10209000FFF7B8F8054606E0FFF7B4F8401B022842
:1020A00001D90320F7E437489038006800F0007049
:1020B0000028F1D061E033489038006820F080704B
:1020C0003049903908600846006800F0006020B987
:1020D0000846C06820F00300C8602A489038C068ED
:1020E0002A49084027499039C860FFF78BF8054610
:1020F00007E00EE0FFF786F8401B022801D9032015
:10210000C9E420489038006800F000700028F1D140
:1021100033E0A06A012800D1BDE41A489038C668AF
:1021200006F00301E06A814225D106F07001206BC0
:10213000401EB1EB001F1ED106F4FE41606BB1EBF7
:10214000002F18D106F078413820005DB1EBC06F48
:1021500011D106F4C001A08F0122C2EB5000B1EBF7
:10216000405F08D106F0C0614020005DC2EB500026
:10217000B1EB406F01D001208DE400208BE4000022
:1021800000700040901002408C809D01FFFFEEFE29
:1021900070B504462546681EB0F1807F01D301204A
:1021A0000FE0681E4FF0E02148610F214FF0FF3033
:1021B00001F0F8FD00204FF0E02188610720086160
:1021C000002070BD704770477047000010B503468F
:1021D000002200BF93F83C00012801D1022010BD6D
:1021E000012083F83C0000BF22F0FF00CC6840EAE9
:1021F000040222F440708C6840EA040222F48060F9
:102200004C6840EA040222F400600C6840EA0402D0
:1022100022F480500C6940EA040222F400504C6918
:1022200040EA040222F480408C6A40EA040222F46C
:1022300070200C8B40EA04420D4C1868A0420ED16D
:1022400022F470008C8C40EA045222F08070CC6939
:1022500040EA040222F000700C6A40EA04021868A6
:10226000426400BF002083F83C0000BF00BFB6E717
:10227000002C014030B502460B4600BF92F83C00EE
:10228000012801D1022030BD012082F83C0000BFAE
:10229000022082F83D0010684168106884680F4D84
:1022A0001068A84203D121F470015868014321F05D
:1022B00070011868014324F0800498680443106892
:1022C000416010688460012082F83D0000BF00205A
:1022D00082F83C0000BF00BFD5E70000002C0140A1
:1022E00010B504460CB9012010BD94F83D0028B982
:1022F000002084F83C00204600F00CF8022084F80E
:102300003D00211D206801F029F8012084F83D00DE
:102310000020E9E738B504462068B0F1804F0DD1C0
:1023200000BF1D48806D40F001001B4988650846CC
:10233000806D00F00100009000BF2CE0174920687C
:10234000884216D100BF1448006E40F48030124914
:1023500008660846006E00F48030009000BF00BFA1
:10236000002211461820FEF7CBFF1820FEF7B8FF19
:1023700011E00B49206888420DD100BF0648006E6D
:1023800040F40030044908660846006E00F400304E
:10239000009000BF00BF38BD001002400040014067
:1023A000004401402DE9F04104460D4600BF94F879
:1023B0003C00012802D10220BDE8F081012084F810
:1023C0003C0000BF022084F83D0020688668374842
:1023D000064026F47F46206886602868502833D05F
:1023E0000CDC202850D004DC00284BD0102851D120
:1023F00049E0302849D040284CD139E060282DD020
:10240000702807D0B0F5805F03D0B0F5005F41D1F0
:102410000DE040E0D5E902136A68206800F0E9FFAA
:102420002068866846F077062068866033E0D5E944
:1024300002136A68206800F0DCFF2068806840F4BE
:1024400080402168886026E0EA686968206801F0B9
:1024500045F95021206800F0D7FF1CE0EA68696860
:10246000206801F04EF96021206800F0CDFF12E0F5
:10247000EA686968206801F031F94021206800F0BD
:10248000C3FF08E000BF00BF00BF2968206800F05C
:10249000BBFF00E000BF00BF012084F83D0000BF8B
:1024A000002084F83C0000BF00BF85E788FFFEFFE6
:1024B000704710B5044620680069C0F34000D8B1E9
:1024C0002068C068C0F34000B0B16FF0020021681E
:1024D0000861012020772068806900F0030018B1AE
:1024E0002046FFF7E5FF05E0204600F031F92046E1
:1024F00000F004FA0020207720680069C0F3800013
:10250000D8B12068C068C0F38000B0B16FF004009B
:1025100021680861022020772068806900F44070FB
:1025200018B12046FFF7C4FF05E0204600F010F97F
:10253000204600F0E3F90020207720680069C0F30E
:10254000C000D8B12068C068C0F3C000B0B16FF05F
:10255000080021680861042020772068C06900F025
:10256000030018B12046FFF7A3FF05E0204600F066
:10257000EFF8204600F0C2F90020207720680069BB
:10258000C0F30010D8B12068C068C0F30010B0B12B
:102590006FF0100021680861082020772068C0696A
:1025A00000F4407018B12046FFF782FF05E0204696
:1025B00000F0CEF8204600F0A1F900202077206836
:1025C000006900F0010058B12068C06800F0010007
:1025D00030B16FF0010021680861204600F0C8F9B1
:1025E00020680069C0F3C01058B12068C068C0F30B
:1025F000C01030B16FF08000216808612046FFF7FD
:10260000E2FD20680069C0F3002058B12068C0686E
:10261000C0F3C01030B16FF48070216808612046AB
:10262000FFF7D0FD20680069C0F3801058B1206822
:10263000C068C0F3801030B16FF0400021680861BD
:10264000204600F096F920680069C0F3401058B1A8
:102650002068C068C0F3401030B16FF020002168DE
:1026600008612046FFF7B0FD10BD000010B586B030
:102670000446142101A8FDF7E0FD2068B0F1804F69
:102680001BD100BF2E48C06C40F002002C49C8642A
:102690000846C06C00F00200009000BF00BF0815A3
:1026A00001900220029000200390049001200590E8
:1026B00001A92448FEF7BCFC40E023492068884279
:1026C0001CD100BF1E48C06C40F002001C49C86409
:1026D0000846C06C00F00200009000BF00BF4FF43D
:1026E00080400190022002900020039004900E2070
:1026F000059001A91348FEF79BFC1FE013492068D1
:1027000088421BD100BF0E48C06C40F001000C494C
:10271000C8640846C06C00F00100009000BF00BF14
:1027200040200190022002900020039004900E208F
:10273000059001A94FF09040FEF77AFC06B010BD5D
:1027400000100240000400480040014000440140E5
:10275000704770B504460D46164600BF94F83C001D
:10276000012801D1022070BD012084F83C0000BF87
:10277000022084F83D000C2E51D005DC4EB1042E11
:102780001ED0082E7AD133E0102E60D0142EF9D14D
:1027900075E02946206800F041FE2068806940F01D
:1027A0000800216888612068806920F004002168A1
:1027B000886120688069296908432168886177E019
:1027C0002946206800F06EFE2068806940F40060B1
:1027D000216888612068806920F4806021688861B0
:1027E00020688069296940EA0120216888615FE0EA
:1027F0002946206800F09EFE2068C06940F008006D
:102800002168C8612068C06920F004002168C8619F
:102810002068C069296908432168C86148E02946E1
:10282000206800F0CFFE2068C06940F40060216895
:10283000C8612068C06920F480602168C861206890
:10284000C069296940EA01202168C86130E0294651
:10285000206800F0E7FE2068406D40F00800216825
:1028600048652068406D20F00400216848652068B4
:10287000406D296908432168486519E017E0294639
:10288000206800F0FDFE2068406D40F40060216883
:1028900048652068406D20F48060216848652068A4
:1028A000406D296940EA01202168486500E000BFC9
:1028B00000BF012084F83D0000BF002084F83C00E8
:1028C00000BF00BF4FE710B504460CB9012010BD92
:1028D00094F83D0028B9002084F83C00204600F020
:1028E0000CF8022084F83D00211D206800F036FD20
:1028F000012084F83D000020E9E7704770470000A0
:1029000070B504460E4601223146206800F060FD95
:1029100013492068884207D012492068884203D0B2
:1029200011492068884201D1012000E0002028B12F
:102930002068406C40F4004021684864206880684A
:102940000A4900EA0105062D08D0B5F5803F05D0FB
:102950002068006840F0010021680860002070BD18
:10296000002C0140004001400044014007000100EC
:1029700070477047704770472DE9F047044620685C
:10298000C569206806682068876805F00F08B8F1F7
:10299000000F0CD105F0200048B106F0200030B146
:1029A000206E10B12046216E8847BDE8F087B8F14F
:1029B000000F71D007F0010018B906F490700028DC
:1029C00079D005F0010048B106F4807030B10120E3
:1029D00021680862E06F40F00100E06705F0020046
:1029E00048B107F0010030B1022021680862E06FB1
:1029F00040F00400E06705F0040048B107F0010072
:102A000030B1042021680862E06F40F00200E06706
:102A100005F0080060B106F0200010B907F00100D1
:102A200030B1082021680862E06F40F00800E067DC
:102A3000E06F80B305F0200038B106F0200020B12F
:102A4000206E10B12046216E8847D4F87C90206813
:102A5000806800F04000402802D009F0080020B350
:102A6000204600F021FF2068806800F040004028E8
:102A700017D12068806820F0400021688860E06EEF
:102A800058B12048E16E8863E06EFEF78EFA10B10F
:102A9000E06E816B88470DE00DE02046FFF76BFF8D
:102AA00008E02046FFF767FF04E02046FFF763FFDA
:102AB0000020E06779E705F4801050B107F480004A
:102AC00038B14FF48010216808622046FFF752FFAA
:102AD0006BE705F0800040B106F0800028B1606E21
:102AE00010B12046616E88475FE705F0400030B1C5
:102AF00006F0400018B1204600F0E7FE55E700BFA1
:102B000053E700009138000810B504460CB90120C5
:102B100010BDA06900B100E000BF606F28B90020BF
:102B200084F87000204600F029F8242060672068AF
:102B3000006820F0010021680860204600F0D6FE01
:102B4000012800D1E4E7606A10B1204600F0EDFDF5
:102B50002068406820F490402168486020688068C0
:102B600020F02A00216888602068006840F0010099
:102B700021680860204600F054FEC9E710B586B011
:102B80000446142101A8FDF758FB1C49206888421F
:102B900031D100BF1A48806D40F400301849886573
:102BA0000846806D00F40030009000BF00BF00BFF9
:102BB0000846C06C40F00100C8640846C06C00F0D4
:102BC0000100009000BF00BF0C2001900220029085
:102BD00000200390032004900720059001A94FF0E6
:102BE0009040FEF725FA002211462620FEF788FBCA
:102BF0002620FEF775FB06B010BD00000044004023
:102C0000001002402DE9F84F04460E46174699463B
:102C1000606F20285CD106B117B9012000F05AB8C6
:102C200000BF94F87000012801D10220F6E70120CE
:102C300084F8700000BF0020E06721206067FEF785
:102C4000E1FA8246A4F85070A4F85270A068B0F57A
:102C5000805F04D1206910B90025B04602E03546F6
:102C60004FF000081DE05346002280212046CDF899
:102C7000009001F040F808B10320CFE745B9B8F85B
:102C80000000C0F308002168088508F1020803E08D
:102C90002878216808856D1CB4F85200401EA4F8FD
:102CA0005200B4F852000028DDD1534600224021E2
:102CB0002046CDF8009001F01EF808B10320ADE7E2
:102CC0002020606700BF002084F8700000BFA5E7E7
:102CD0000220A3E718BCBDE8E08F704700BFFEE705
:102CE00010B50E480E490860A020486000210C482D
:102CF0008160C1604FF4702101614FF4E0014161D6
:102D00000021017641768176C17601774177FDF722
:102D1000FBFF08B1FDF787FD10BD00000064004017
:102D20003000002000B587B0142102A8FDF785FA15
:102D300000BF2448C06C40F004002249C864084623
:102D4000C06C00F00400019000BF00BF00BF084647
:102D5000C06C40F00100C8640846C06C00F001007F
:102D6000019000BF00BF00BF0846C06C40F00200E9
:102D7000C8640846C06C00F00200019000BF00BFAC
:102D8000012202211048FEF737FA002240210E48A6
:102D9000FEF732FA022002900120039000200490F6
:102DA000059002A90848FEF743F94020029001204F
:102DB000039004900020059002A90348FEF738F91B
:102DC00007B000BD001002400008004800B599B0EF
:102DD0000020159016901790189012901390149050
:102DE0001C210BA8FDF729FA2C216846FDF725FACE
:102DF0002B482C49086040F21F30486000212948C8
:102E0000816040F2CF71C160002101614161816147
:102E1000FFF766FA08B1FDF706FD4FF480501590F4
:102E200015A92048FFF7BEFA08B1FDF7FCFC1D48C4
:102E3000FFF749FD08B1FDF7F6FC00201290149051
:102E400012A91848FFF716FA08B1FDF7ECFC60204C
:102E50000B9000200C900D900E900F901090119000
:102E600000220BA90F48FFF774FC08B1FDF7DBFC4B
:102E70000020009001900290039004904FF40050C5
:102E8000059000200A9069460648FFF79FF908B1AF
:102E9000FDF7C9FC0348FFF7E9FB19B000BD0000CE
:102EA000004001409800002000B593B01C210CA800
:102EB000FDF7C3F92C2101A8FDF7BFF921482249EC
:102EC000086040F21F30486000211F48816040F2D6
:102ED000CF71C1600021016141618161FFF700FA9A
:102EE00008B1FDF7A0FC1848FFF7EDFC08B1FDF7AD
:102EF0009AFC60200C9000200D900E900F90109086
:102F00001190129000220CA90F48FFF722FC08B183
:102F1000FDF789FC00200190029003900490059039
:102F20004FF40050069000200B9001A90648FFF7CF
:102F30004DF908B1FDF777FC0348FFF797FB13B095
:102F400000BD000000440140D800002000B58FB053
:102F500000200B900C900D900E90089009900A9014
:102F60001C2101A8FDF769F94FF080401F49086056
:102F700040F21F30486000211C48816040F2CF7150
:102F8000C160002101618161FFF7AAF908B1FDF775
:102F90004AFC4FF480500B900BA91448FFF702FA3B
:102FA00008B1FDF740FC1148FFF78DFC08B1FDF7B3
:102FB0003AFC002008900A9008A90C48FFF75AF93B
:102FC00008B1FDF730FC60200190002002900390D2
:102FD0000590082201A90548FFF7BBFB08B1FDF7E2
:102FE00022FC0248FFF742FB0FB000BD5800002052
:102FF00010B50D480D4908604FF4E13048600021DC
:103000000A488160C16001610C2141610021816138
:10301000C16101620020054948620846FFF774FD5E
:1030200008B1FDF700FC10BD00440040180100206D
:1030300000BFFEE7704770472DE9F04104460F4698
:1030400000255B48C06800F0030090B15848C06894
:1030500000F003002168884209D1206838B1544843
:10306000C068C0F30210401C6168884233D001255B
:1030700031E02068012804D0022809D003281AD1A1
:103080000DE04B48006800F0020000B9012514E093
:103090004748006800F4806000B901250DE044480D
:1030A000006800F4003028B94148006800F480202E
:1030B00000B9012501E0012500BF00BF5DB9D4E9D9
:1030C0000010401E41EA00103949C96821F073011F
:1030D00008433749C860002D67D13548006820F0A3
:1030E000806033490860FEF78DF8064606E0FEF77B
:1030F00089F8801B022801D9032505E02C480068C7
:1031000000F000600028F2D100BFC5BB67B9A0681D
:103110000002217B40EAC16025490969254A114026
:1031200008432349086120E0012F0FD1A068000265
:10313000218A0122C2EB510140EA41501C49096930
:103140001D4A114008431A4908610EE0A0680002B8
:10315000217D0122C2EB510140EA41601449096915
:10316000164A11400843124908611148006840F0AE
:1031700080600F490860FEF745F8064607E014E056
:10318000FEF740F8801B022801D9032505E0084816
:10319000006800F000600028F2D000BF2DB904489C
:1031A0000069A1690843024908612846BDE8F08129
:1031B00000100240FF80FF07FF809FFFFF80FFF9A4
:1031C000F8B5044600262348806D00F0805018B101
:1031D000FEF732F9054616E000BF1E48806D40F04C
:1031E00080501C4988650846806D00F08050009032
:1031F00000BF00BFFEF720F905461648806D20F09D
:10320000805014498865B5F5007F07D1802C10D90E
:10321000A02C01D902260CE001260AE0802C01D95D
:10322000032606E0802C01D1022602E0702C00D19A
:1032300001260948006820F007003043064908606D
:103240000846006800F00700B04201D00120F8BD38
:103250000020FCE70010024000200240704710B53B
:10326000FDF7D6FF10BD00B5ADB044211CA8FCF79A
:10327000E4FF142117A8FCF7E0FF5C216846FCF787
:10328000DCFF10201C900120229000202390602061
:1032900024900220269001211CA8C16201632821EC
:1032A0004163072181630221C1630164FEF7EEFBE4
:1032B00008B1FDF7B8FA0F201790032018900020EE
:1032C00019901A901B90042117A8FEF781FA08B1F3
:1032D000FDF7A9FA02200090002009906846FEF749
:1032E000B3F808B1FDF79FFA4FF40070FEF75EF8EF
:1032F00008B1FDF798FA2DB000BD00001048006835
:1033000040F470000E4908600E48006840F001006B
:103310000C49086000208860084600680A49084097
:10332000084908608814C8600846006820F48020B6
:10333000086000208861C80301498039086070472F
:1033400088ED00E000100240FFFFF6EA10B50248E9
:10335000FFF7AFF810BD00009800002010B502681C
:10336000184B984202D0B0F1804F03D122F0700286
:103370004B681A43134B984208D0B0F1804F05D0E8
:10338000114B984202D0114B984203D122F4407263
:10339000CB681A4322F080034C6943EA04020260BE
:1033A0008B68C3620B688362064B984205D0064B5C
:1033B000984202D0054B984201D10B690363012367
:1033C000436110BD002C0140004001400044014019
:1033D00030B501F01F05012404FA05F3046A9C438B
:1033E0000462046A01F01F0502FA05F52C43046229
:1033F00030BD30B50C46816821F47F4142EA032597
:1034000025432943816030BD0A46816821F070015F
:1034100042F00703194381607047000030B5056A28
:1034200025F001050562026A43688469194D2C4044
:1034300024F003040D682C4322F002028D682A4315
:10344000154DA84200D107E0144DA84200D103E079
:10345000134DA84206D100BF22F00802CD682A43CE
:1034600022F004020C4DA84205D00C4DA84202D017
:103470000B4DA84207D123F4807323F400734D69E8
:103480002B438D692B43436084614D684563026221
:1034900030BD00008FFFFEFF002C014000400140C6
:1034A0000044014030B5056A25F010050562026A46
:1034B000436884691B4D2C4024F440740D6844EA31
:1034C000052422F020028D6842EA0512164DA8421A
:1034D00000D107E0154DA84200D100BF144DA8420D
:1034E00007D106E022F08002CD6842EA051222F000
:1034F00040020D4DA84205D00C4DA84202D00C4D03
:10350000A84209D123F4806323F400634D6943EAA0
:1035100085038D6943EA8503436084614D68856353
:10352000026230BDFF8FFFFE002C014000400140D1
:103530000044014030B5056A25F480750562026AD1
:103540004368C4691B4D2C4024F003040D682C43D0
:1035500022F400728D6842EA0522174DA84200D17C
:1035600007E0164DA84200D100BF154DA84207D173
:1035700006E022F40062CD6842EA052222F480626D
:103580000D4DA84205D00D4DA84202D00C4DA842C9
:1035900009D123F4805323F400534D6943EA051302
:1035A0008D6943EA05134360C4614D68C5630262D7
:1035B00030BD00008FFFFEFF002C014000400140A5
:1035C0000044014030B5056A25F480550562036A60
:1035D0004468C2690F4D2A4022F440720D6842EAE5
:1035E000052223F400538D6843EA05330A4DA842AF
:1035F00005D00A4DA84202D0094DA84204D124F4B6
:1036000080444D6944EA85144460C2614D68056494
:10361000036230BDFF8FFFFE002C014000400140DF
:103620000044014030B5056A25F480350562026A20
:103630004368446D0E4D2C400D682C4322F400323B
:103640000D8942EA05420B4DA84205D00A4DA84219
:1036500002D00A4DA84204D123F480334D6943EAD5
:103660000523436044654D688565026230BD0000F6
:103670008FFFFEFF002C014000400140004401404C
:1036800030B5056A25F480150562026A4468436D09
:103690000E4D2B400D6843EA052322F400120D89DC
:1036A00042EA05520A4DA84205D00A4DA84202D06E
:1036B000094DA84204D124F480244D6944EA8524AC
:1036C000446043654D68C565026230BDFF8FFFFEF3
:1036D000002C0140004001400044014030B50B4641
:1036E0001446026A056A25F001050562816921F028
:1036F000F00141EA041122F00A021A4381610262D8
:1037000030BD30B50B461446056A25F0100505623C
:103710008169026A21F4704141EA043122F0A00279
:1037200042EA03128161026230BD90F8241001F078
:10373000010139B10168496821F40031826A1143FD
:103740000268516090F8241001F00201022907D1AB
:103750000168496821F48031C26A114302685160EE
:1037600090F8241001F00401042907D10168496888
:1037700021F48021026B11430268516090F82410FB
:1037800001F00801082907D10168496821F40041C6
:10379000426B11430268516090F8241001F010014F
:1037A000102907D10168896821F48051826B114387
:1037B0000268916090F8241001F02001202907D1BF
:1037C0000168896821F40051C26B1143026891605D
:1037D00090F8241001F04001402913D10168496894
:1037E00021F48011026C114302685160016CB1F543
:1037F000801F07D10168496821F4C001426C114360
:103800000268516090F8241001F08001802907D1EE
:103810000168496821F40021826C114302685160FB
:10382000704738B504460020E067FDF7EBFC05461D
:103830002068006800F0080008280CD16FF07E4076
:103840002B4600224FF400110090204600F053FA5E
:1038500008B1032038BD2068006800F00400042887
:103860000CD16FF07E402B4600224FF48001009077
:10387000204600F040FA08B10320EBE72020606703
:10388000A06700BF002084F8700000BF00BFE1E720
:1038900070B50546AC6A0020A4F85A00A4F852009E
:1038A0002046FFF768F870BD0168096821F490713F
:1038B000026811600168896821F001010268916065
:1038C0002021816700210166704710B504462068F9
:1038D000006820F040002168086020206067002018
:1038E00060662046FFF7F9F910BD00002DE9F84F9A
:1038F00004460026002000908246F4492068884251
:1039000000D100E000BF2169A06808436169084355
:10391000E16940EA010920680068ED49084040EA91
:103920000900216808602068406820F44050E16880
:10393000084321684860D4F81890E4492068884218
:1039400002D0206A40EA09092068806820F43060CB
:1039500040EA09002168886000BFDE49206888428B
:1039600016D1DD48006800F0030030B1012808D00E
:10397000022804D0032808D105E0012507E002252C
:1039800005E0042503E0082501E0102500BF54E010
:10399000D2492068884216D1CF48006800F00C0058
:1039A00030B1042808D0082804D00C2808D105E03C
:1039B000002507E0022505E0042503E0082501E0D5
:1039C000102500BF39E0C6492068884216D1C24898
:1039D000006800F0300030B1102808D0202804D052
:1039E000302808D105E0002507E0022505E0042580
:1039F00003E0082501E0102500BF1EE0B349206860
:103A0000884219D1B448006800F4406048B1B0F56C
:103A1000806F0AD0B0F5006F05D0B0F5406F08D1C7
:103A200005E0002507E0022505E0042503E0082560
:103A300001E0102500BF00E0102500BFA349206869
:103A4000884272D1042D10D003DC3DB1022D13D178
:103A500008E0082D0DD0102D0ED10EE0FDF77CFFF3
:103A600082460DE0DFF87CA20AE0FDF799FF82466E
:103A700006E04FF4004A03E000BF0120009000BFC1
:103A800000BFBAF1000F0AD0606800EB400050455B
:103A900003D860680003504502D2012000900FE176
:103AA000042D2ED003DC3DB1022D51D118E0082D9C
:103AB0003CD0102D4CD14CE0FDF74EFF4FF48071FF
:103AC000A0FB0131606840081F1841F10001D4F8E3
:103AD00004C0624600233846FCF774FB06463BE010
:103AE000D4F804C04FEA5C0000217F4BC71841EBBB
:103AF000010862460B4638464146FCF763FB064622
:103B00002AE0FDF74DFF4FF48071A0FB01306168A2
:103B100049085F1840F10001D4F804C06246002350
:103B20003846FCF74FFB064616E022E0D4F804C006
:103B30004FEA5C0000214FF40003C71841EB010875
:103B400062460B4638464146FCF73CFB064603E01E
:103B500000BF0120009000BF00BFB6F5407F05D335
:103B6000B6F5801F02D22068C660A9E0012000904F
:103B7000A6E0E069B0F5004F57D1042D28D005DC50
:103B80004DB1012D11D0022D36D118E0082D29D0CC
:103B9000102D31D131E0FDF7DFFE4000616800EB10
:103BA0005100B0FBF1F086B22AE0FDF7E7FE4000DD
:103BB000616800EB5100B0FBF1F086B220E04B49A8
:103BC000606801EB50006168B0FBF1F086B217E06D
:103BD000FDF7E6FE4000616800EB5100B0FBF1F03C
:103BE00086B20DE04FF48031606801EB50006168EF
:103BF000B0FBF1F086B203E000BF0120009000BFEF
:103C000000BF102E0ED3B6F5803F0BD24FF6F070EA
:103C100006EA000BC6F342004BEA000B2068C0F82E
:103C20000CB04DE0012000904AE0042D26D005DCC8
:103C30004DB1012D10D0022D33D116E0082D26D024
:103C4000102D2ED12EE0FDF787FE616800EB5100AC
:103C5000B0FBF1F086B228E0FDF790FE616800EB62
:103C60005100B0FBF1F086B21FE01E49606801EB25
:103C700050006168B0FBF1F086B216E0FDF790FEEF
:103C8000616800EB5100B0FBF1F086B20DE04FF43B
:103C90000041606801EB50006168B0FBF1F086B252
:103CA00003E000BF0120009000BF00BF102E05D32D
:103CB000B6F5803F02D22068C66001E00120009086
:103CC000002020666066009800F012B80080004076
:103CD000F369FFEF003801408810024000440040C3
:103CE000004800400024F400000024F40048E801EB
:103CF00018BCBDE8E08F2DE9F04104460D4617469B
:103D00009846069E1FE0701CE8B1FDF77BFAA0EB19
:103D10000800B04200D8B6B92068006820F4D0701E
:103D2000216808602068806820F0010021688860B0
:103D300020206067A06700BF002084F8700000BFEB
:103D40000320BDE8F0812068C0692840A84201D165
:103D5000012000E00020B842D5D00020F1E70000AB
:103D600010B50248FEF708FE10BD00001801002043
:103D700000BFFEE70FB4054B10B503A9044A029833
:103D800000F0FAF810BC5DF814FB0000AD46000826
:103D90002C00002002480068C0F302207047000099
:103DA0000CED00E010B5002804DB0A07130E054AED
:103DB000135406E00A07140E034A00F00F031B1FFA
:103DC000D45410BD00E400E018ED00E002E008C8A3
:103DD000121F08C1002AFAD170477047002001E085
:103DE00001C1121F002AFBD1704700002DE9FF5FBF
:103DF00082B00021DDE90430020DDDF840B003435C
:103E000018D044F61050A2F2FF3242431514119814
:103E100001281FD0A5EB0B00401C5FEA000A4FF001
:103E200000064E4FDFF83891B046504615D5CAF11E
:103E3000000413E0119801244AA3012801D16FEA7C
:103E40000B010298119AC0E90031C0E9024206B0A4
:103E500000F08EB8CBF10000DFE704460021404AB5
:103E6000491842EB0450CDE9001012E0E00707D0FA
:103E700032463B4640464946FCF73CFB8046894675
:103E800032463B4610461946FCF734FB06460F46C1
:103E90006410002CEAD1DDE90401DDE90023BAF168
:103EA000000F06DAFCF726FB42464B46FCF722FBE6
:103EB00005E0FCF794FB42464B46FCF790FB0446BA
:103EC0000E460022284BFCF711FC03D84FF0FF30C0
:103ED000014607E00022254B20463146FCF75BFAFD
:103EE000FCF7ECFB102409E0002C0ADB0A2200237B
:103EF000FCF768F9039B30321A55641E50EA010240
:103F0000F2D1641C039AC4F111031444119A012ADA
:103F100003D0012208430DD10AE0084304D0002059
:103F20004FF0110B119072E7A3EB0B056D1E0DE026
:103F30005B4504DD4FF0000205F1010504E003DA02
:103F40004FF00002A5F10105002AECD0029811996A
:103F5000C0E90231C0E9004579E7000000001440E3
:103F60000000F03F300000000000F0430000E03FA0
:103F700030BCBDE8C09F00002DE9FF4F95B09B46C7
:103F80008946064600250FE2252877D100242746DA
:103F9000F84A0121059400E0044316F8013F203B54
:103FA00001FA03F01042F7D130782A2811D06FF0CF
:103FB0002F033078A0F13002092A16D8059A44F070
:103FC000020402EB820203EB42021044761C0590CD
:103FD000EFE759F8042B0592002A03DA504244F423
:103FE0000054059044F00204761C30782E2816D137
:103FF00016F8010F44F004042A280DD06FF02F02A8
:104000003078A0F13003092B09D807EB870302EBC6
:104010004303C718761CF3E759F8047B761C307805
:104020006C280FD006DC4C2817D068280DD06A28E1
:1040300014D104E0742810D07A280FD10DE044F494
:1040400000140AE044F4801401E044F4401472784F
:10405000824202D104F58014761C761C30786628E2
:104060000BD013DC582877D009DC002875D0452800
:10407000F6D04628F4D047281AD19DE118E06328ED
:1040800035D0642879D0652812D195E1702873D095
:1040900008DC6728F1D069286FD06E280DD06F2812
:1040A00006D1B5E073282CD0752875D0782874D047
:1040B0005A46179990476D1C75E1C4F302500228C7
:1040C00009D003280DD0D9F8001004280DD00D60B8
:1040D00009F1040967E1D9F80010EA17C1E90052B3
:1040E000F6E7D9F800100D80F2E70D70F0E719F847
:1040F000041B8DF8001000208DF80100EA46012015
:1041000003E059F804AB4FF0FF3061074FF00001B6
:1041100002D40DE008F101018846B9420FDA80456A
:10412000F8DB1AF808100029F4D108E008F10101C1
:1041300088468142FADB1AF808100029F6D1059862
:104140005B46A0EB080721463846179A00F097FA1D
:10415000284400EB080507E04DE029E10DE01AF8DE
:10416000010B5A4617999047B8F10108F7D25B4600
:1041700021463846179A13E142E00A220092C4F31E
:1041800002524FF0000A022A08D059F804CB032A41
:104190004FEAEC710AD00DE029E02AE009F10701AD
:1041A00021F00702F2E802C1914609E00FFA8CFC07
:1041B0004FEAEC71042A03D14FFA8CFC4FEAEC7100
:1041C000002907DA0A460021DCF1000C61EB02014C
:1041D0002D2202E0220504D52B228DF80420012295
:1041E00003E0E20701D02022F7E7904659E00A21D8
:1041F00002E010220DE010214FF0000A00910BE0C8
:1042000010224FF0000A44F004040827009203E053
:1042100008224FF0000A0092C4F30252022A05D08D
:1042200059F804CB0021032A08D009E009F107015D
:1042300021F00702F2E802C1914605E01FFA8CFC6A
:10424000042A01D10CF0FF0C4FF00008220728D5FA
:10425000702806D0009B83F0100353EA0A0305D0B0
:104260000EE040228DF80420012208E05CEA010201
:1042700006D030228DF804208DF8050002229046E9
:10428000009B83F0080353EA0A030AD15CEA0102A7
:1042900001D1620705D530228DF804204FF00108C6
:1042A0007F1E582804D034A003900EA802900DE081
:1042B00036A0F9E753466046009AFBF783FF844631
:1042C0000398825C0298401E029002705CEA010032
:1042D000F0D1029806A9081A00F1200A600702D559
:1042E00024F4803400E00127574502DDA7EB0A00E3
:1042F00000E0002000EB0A01009005984144401ABC
:104300000590E00306D45B462146179A059800F015
:10431000B6F90544002706E001A85A46C05D179982
:1043200090476D1C7F1C4745F6DBE0030CD55B46D0
:104330002146179A059800F0A2F9054404E03020C0
:104340005A46179990476D1C0099481E0090002905
:10435000F5DC08E0029802995A460078491C02915F
:10436000179990476D1CBAF10001AAF1010AF1DC1E
:1043700065E1000009280100303132333435363729
:1043800038396162636465660000000030313233A1
:104390003435363738394142434445460000000041
:1043A00000F05BF90544761C307800287FF4ECAD12
:1043B00019B0284600F04EB9620700D4062709F16B
:1043C000070222F0070CFCE80223E14603F0004854
:1043D0005FEA080C02D00FF2702C0DE05FEA045C7B
:1043E00002D50FF2682C07E05FEAC47C02D00FF21E
:1043F000602C01E0AFF2700C4FF0FF3823F0004367
:10440000CDF850C065280CD006DC452809D04628D8
:104410001DD047283DD13DE0662818D067287ED1C1
:1044200038E00021112F01DB112000E0781CCDE9DC
:10443000000106A90EA8FFF7D9FCDDE90F010E9ACD
:1044400003910021009207F1010A04914DE04FF021
:1044500000400097CDE9011006A90EA8FFF7C6FCA1
:10446000DDE90F0203920E9B11990022DDF80CA0EA
:104470000093049211B9791C00EB010AB7EB0A0012
:1044800004D4C0F1FF3007F1010A0490AAEB070041
:10449000019044E0012F00DA01270021112F01DDF6
:1044A000112000E03846CDE9000106A90EA8FFF76B
:1044B0009DFCDDE90F010E9A039100210491009209
:1044C000BA4621070CD40399514500DA8A46BAF15D
:1044D000010F05DD009AAAF10101515C302908D0D5
:1044E000B84202DA10F1040F06DA0121CDE9011019
:1044F00015E0AAF10101E9E7002805DC049901446F
:104500000491AAEB000102E0411C514500DD8A46FE
:104510000499401A401C01904FF00040029020077F
:1045200004D40198504501DBCDF8048000208DF8BB
:104530004F0002980DF14F07B0F1004F25D02B200E
:104540000E9002984FF0020800280CDA40420290C8
:104550002D200E9007E00A210298FBF78AFE3031E9
:10456000029007F8011DB8F10001A8F10108F2DC82
:1045700002980028EFD1791E0E980870307800F06C
:10458000200040F0450007F8020D12A8C01B00F102
:1045900007081498007800B1012000EB0A01019887
:1045A00001EBE07105984144401A401E0590E0037C
:1045B00006D45B462146179A059800F060F805443A
:1045C0001498007818B15A46179990476D1CE0036B
:1045D00024D55B462146179A059800F050F805440B
:1045E0001CE00498002807DBDDE90301884203DDB5
:1045F0000098405C179901E0179930205A4690477F
:10460000049805F10105401C04900198401E01909A
:1046100004D12E205A46179990476D1CBAF100011B
:10462000AAF1010ADDDC05E017F8010B5A461799DB
:1046300090476D1CB8F10001A8F10108F4DC5B465D
:104640002146179A0598ABE62D0000002B000000CC
:104650002000000030BCBDE8C08F2DE9F0410446C9
:1046600000251E461746880404D405E0394620205C
:10467000B0476D1C641EF9D52846BDE8F0812DE9D0
:10468000F041044600251E469046C80301D5302758
:1046900000E02027880404D505E041463846B047AD
:1046A0006D1C641EF9D52846BDE8F08113B50C4693
:1046B0004FF6FF73012269460248FEF7A3FA0098FD
:1046C0001CBD0000180100202DED028BFCF7ACFD95
:1046D000FEF7C9FDFEF726FBFEF778FBFEF788FC28
:1046E000FEF7FEFAFEF732FCFEF7DEFB00BF00BF6E
:1046F00031A0FFF73FFB00213348FEF701F93348B3
:1047000000783349087008460078FF2801D18520D9
:10471000087002212F48FCF787F808B1FCF783F8EE
:10472000FCF742F82A48007800F500702A49086032
:10473000012048600020C8608860012008610020D6
:104740000875FA202549087000E000BF244B234A71
:1047500021492048FCF77DF80028F6D100BF02254A
:1047600000BF27E04FF4FA60FCF74EFC681CC5B2AE
:1047700005EB850040F2A91101EB8004204600F012
:104780004FF8214617A0FFF7F5FA40F6E44014FB76
:1047900000F04FF4FA6190FBF1F63046FBF758FD5C
:1047A00041EC180B53EC182B16A0FFF7E3FA142D6D
:1047B00000D10025D6E700000A0D09BFAABBFAA167
:1047C000A3090A0D00000000980000200040010825
:1047D0000000002030000020C00100200100002067
:1047E000140000200A0D09C9E8D6C3B5E7D1B9CE37
:1047F000AA202564202F3230303020A1A3090909D6
:1048000000000000B5E7D1B9D6B5D7AABBBBBAF353
:1048100020A3BA20252E31662056090A0D0000007B
:1048200010B588B004461C2101A8FBF706FD6020E6
:104830000190029400200390049005900690079048
:10484000002201A91148FDF784FF08B1FBF7EBFF37
:1048500000210E48FEF754F8082201A90C48FDF784
:1048600078FF08B1FBF7DFFF08210948FEF748F899
:10487000002201A90748FDF76CFF08B1FBF7D3FF41
:1048800000210448FEF73CF808B010BD9800002055
:1048900058000020D80000200000000000000000A8
:1048A00001020304060708090000000001020304D6
:1048B000A0860100400D0300801A060000350C00A0
:1048C00040420F0080841E0000093D0000127A0063
:1048D0000024F40000366E010048E801006CDC02A0
:1048E000004900080000002030000000CC3D000816
:1048F0003049000830000020C8050000DC3D0008F9
:104900008500000000000000000000000000000022
:1049100000000000000000000000000000093D0051
:104920000000000010000000010000000000000076
:040000050800018D61
:00000001FF
